:100000000C94500B0C94160C0C94160C0C94691355
:100010000C94160C0C9401290C94160C0C94160CD0
:100020000C94160C0C94160C0C9467290C94160C5A
:100030000C94160C0C94160C0C94160C0C94160CB8
:100040000C94E8120C94160C0C94FB2A0C94160CCD
:100050000C94160C0C94CC0C0C94160C0C94160CE2
:100060000C94160C0C94160C0C9405280C94160C7D
:100070000C94160C0C94160C0C94160C0C94160C78
:100080000C94160C0C94782A0C94160C9E182919B2
:100090002919291929192919291921192919291958
:1000A0002919291929191119291929198317941797
:1000B000A517B717C917DB17ED17FF171118231866
:1000C0002919291929191919291929192919351825
:1000D0001118591829197C188D182919AE182919C1
:1000E000C0182919C918291929198317E4182919B9
:1000F0002919DB172919F618291929192919081995
:1001000029192919291929192919291929192919DF
:100110004718A6186B18291929192318B71829196F
:100120002919291929192919D218DB182919291966
:10013000ED1829192919FF18C3190E1AD11A961B7F
:100140005E1C201DE61DE41EF01EFC1E1E1F401F2F
:100150009F1FBC1FAC1F752082208F209C20A920D0
:10016000CF20F32018213D217A21BE211E227123A8
:10017000A023C623EB23F9231C244B249924A72472
:10018000CA24EC240F25352571258D25B325D825C6
:100190005126BF26952AE72AE72AE72AE72AE72AEF
:1001A000E72AE72A952AE72AE72AE72AE72AE72A19
:1001B000E72AE72A972AE72AE72AE72AE72AE72A07
:1001C000E72AE72AE72AE72AE72AE72AE72AE72AA7
:1001D000E72AE72A972AE72AE72AE72AE72AE72AE7
:1001E000E72AE72AE72AE72AE72AE72AE72AE72A87
:1001F000E72AE72AE32AE72AE72AE72AE72AE72A7B
:10020000E72AE72AC22AE72AE72AE72AE72AE72A8B
:10021000E72AE72AE72AE72AE72AE72AE72AE72A56
:10022000E72AE72AB62AE72AE72AE72AE72AE72A77
:10023000E72AE72AD42A00000000000000005F003F
:10024000000007000700147F147F14242A7F2A125D
:10025000231308646236495522500005030000004C
:100260001C2241000041221C00082A1C2A08080800
:100270003E080800503000000808080808006060C8
:10028000000020100804023E5149453E00427F40D4
:100290000042615149462141454B311814127F10EB
:1002A00027454545393C4A4949300171090503361E
:1002B00049494936064949291E003636000000568C
:1002C000360000000814224114141414144122149E
:1002D00008000201510906324979413E7E1111118F
:1002E0007E7F494949363E414141227F4141221C9E
:1002F0007F494949417F090901013E414151327F0E
:100300000808087F00417F41002040413F017F08ED
:100310001422417F404040407F0204027F7F040856
:10032000107F3E4141413E7F090909063E4151216E
:100330005E7F09192946464949493101017F01017A
:100340003F4040403F1F2040201F7F2018207F63F8
:100350001408146303047804036151494543000001
:100360007F4141020408102041417F000004020146
:1003700002044040404040000609090620545454FD
:10038000787F484444383844444420384444487FC3
:100390003854545418087E090102081454543C7F00
:1003A0000804047800447D40002040443D00007F64
:1003B00010284400417F40007C041804787C080425
:1003C000047838444444387C14141408081414186D
:1003D0007C7C080404084854545420043F444020C2
:1003E0003C4040207C1C2040201C3C4030403C4491
:1003F000281028440C5050503C4464544C4400088D
:1004000036410000007F000000413608007C1211D8
:10041000127C7F494949317F494949367F010101B1
:1004200001407E417F407F4949494177087F0877F5
:1004300022414949367F2010087F7F2011087F7FA5
:1004400008142241403E01017F7F020C027F7F0899
:1004500008087F3E4141413E7F0101017F7F09093C
:1004600009063E4141412201017F010107484848F8
:100470003F0E117F110E63140814637F40407F40CC
:10048000070808087F7F407E407F3F203F207F0194
:100490007F4848307F4830007F7F48484830414996
:1004A00049493E7F083E413E462919097F20545460
:1004B000547838545454207C545458207C040404F8
:1004C000044078447C4038545454186C107C106CB0
:1004D00044545454283C4040207C3C4044207C7C84
:1004E00010102844403804047C7C0810087C7C10E0
:1004F00010107C38444444387C0404047C7C14147C
:100500001408384444442804047C04040C5050501B
:100510003C08147C140844281028447C40407C404B
:100520000C1010107C3C407C407C1C203C207C0447
:100530007C5050207C5020007C7C505050204454F3
:100540005454387C10384438085434147C7C555446
:1005500055443855545518000000000000000000B4
:10056000000000BA02DC046606A807BD08B20990C4
:100570000A5B0B170CC70C6B0D070E9A0E270FADFD
:100580000F2D10A8101E119011FE116912D01233F8
:10059000139413F2134E14A714FE145315A615F654
:1005A0001545169316DE1628177117B817FE174251
:1005B000188518C718081948198619C419011A3C52
:1005C0001A771AB11AEA1A221B591B901BC61BFB79
:1005D0001B2F1C631C961CC81CFA1C2B1D5B1D8B3F
:1005E0001DBB1DEA1D181E461E731EA01ECC1EF844
:1005F0001E231F4E1F781FA21FCC1FF51F1E204653
:10060000206E209620BD20E4200B21312157217C33
:1006100021A121C621EB210F22332257227A229DCC
:1006200022C022E2220523272348236A238B23ACFE
:1006300023CD23ED230D242D244D246D248C24ABB8
:1006400024CA24E92407252525442561257F259DE5
:1006500025BA25D725F42511262D264A2666268279
:10066000269E26B926D526F0260C27272742275C6A
:100670002777279127AC27C627E027FA2713282DAD
:10068000284628602879289228AB28C428DC28F539
:10069000280D2925293E2956296E2985299D29B508
:1006A00029CC29E329FB29122A292A402A562A6D16
:1006B0002A842A9A2AB02AC72ADD2AF32A092B1F5C
:1006C0002B352B4A2B602B752B8B2BA02BB52BCAD4
:1006D0002BDF2BF42B092C1E2C332C472C5C2C707D
:1006E0002C842C992CAD2CC12CD52CE92CFD2C1153
:1006F0002D242D382D4C2D5F2D722D862D992DAC4E
:100700002DBF2DD22DE52DF82D0B2E1E2E302E4374
:100710002E562E682E7B2E8D2E9F2EB12EC42ED6B9
:100720002EE82EFA2E0C2F1E2F2F2F412F532F6421
:100730002F762F872F992FAA2FBC2FCD2FDE2FEFAB
:100740002F0030113022303330443055306630764F
:100750003087309830A830B930C930DA30EA30FA12
:10076000300B311B312B313B314B315B316B317BEA
:10077000318B319B31AA31BA31CA31D931E931F9E2
:1007800031083218322732363246325532643273EB
:100790003283329232A132B032BF32CE32DD32EC0D
:1007A00032FA320933183327333533443352336145
:1007B0003370337E338C339B33A933B833C633D491
:1007C00033E233F033FF330D341B342934373445EF
:1007D00034533461346E347C348A349834A634B360
:1007E00034C134CF34DC34EA34F7340535123520E3
:1007F000352D353A3548355535623570357D358A74
:10080000359735A435B135BE35CB35D835E535F21C
:1008100035FF350C361936263632363F364C3659CA
:1008200036653672367F368B369836A436B136BD8D
:1008300036CA36D636E336EF36FB3608371437205D
:10084000372C373937453751375D37693775378139
:10085000378E379A37A637B137BD37C937D537E125
:1008600037ED37F937053810381C38283834383F19
:10087000384B38563862386E387938853890389C1D
:1008800038A738B338BE38CA38D538E038EC38F72E
:100890003802390E39193924392F393A3946395144
:1008A000395C39673972397D39883993399E39A96C
:1008B00039B439BF39CA39D539E039EB39F639009D
:1008C0003A0B3A163A213A2B3A363A413A4C3A56D2
:1008D0003A613A6C3A763A813A8B3A963AA03AAB18
:1008E0003AB53AC03ACA3AD53ADF3AEA3AF43AFE69
:1008F0003A093B133B1D3B283B323B3C3B473B51BA
:100900003B5B3B653B6F3B7A3B843B8E3B983BA21A
:100910003BAC3BB63BC03BCA3BD43BDE3BE83BF287
:100920003BFC3B063C103C1A3C243C2E3C383C41F2
:100930003C4B3C553C5F3C693C723C7C3C863C906B
:100940003C993CA33CAD3CB63CC03CCA3CD33CDDEE
:100950003CE63CF03CFA3C033D0D3D163D203D2974
:100960003D333D3C3D453D4F3D583D623D6B3D7403
:100970003D7E3D873D903D9A3DA33DAC3DB63DBF9C
:100980003DC83DD13DDA3DE43DED3DF63DFF3D083E
:100990003E113E1B3E243E2D3E363E3F3E483E51DC
:1009A0003E5A3E633E6C3E753E7E3E873E903E998B
:1009B0003EA23EAB3EB43EBD3EC53ECE3ED73EE03F
:1009C0003EE93EF23EFA3E033F0C3F153F1D3F26F7
:1009D0003F2F3F383F403F493F523F5A3F633F6CB4
:1009E0003F743F7D3F863F8E3F973F9F3FA83FB07C
:1009F0003FB93FC23FCA3FD33FDB3FE43FEC3FF448
:100A00003FFD3F05400E4016401F4027402F403815
:100A100040404048405140594061406A4072407AED
:100A20004083408B4093409B40A440AC40B440BCCA
:100A300040C540CD40D540DD40E540ED40F540FEAD
:100A40004006410E4116411E4126412E4136413E8F
:100A50004146414E4156415E4166416E4176417E7E
:100A60004186418E4196419E41A641AE41B641BE6E
:100A700041C541CD41D541DD41E541ED41F541FC67
:100A80004104420C4214421B4223422B4233423A5D
:100A90004242424A4252425942614269427042785D
:100AA00042804287428F4297429E42A642AD42B563
:100AB00042BD42C442CC42D342DB42E242EA42F26D
:100AC00042F94201430843104317431F4326432D75
:100AD0004335433C4344434B4353435A4361436987
:100AE00043704378437F4386438E4395439C43A49E
:100AF00043AB43B243BA43C143C843D043D743DEB9
:100B000043E543ED43F443FB4302440944114418D5
:100B1000441F4426442D4435443C4443444A4451F4
:100B20004458445F4467446E4475447C4483448A1B
:100B300044914498449F44A644AD44B444BB44C249
:100B400044CA44D144D844DF44E644EC44F344FA74
:100B500044014508450F4516451D4524452B4532A2
:100B6000453945404547454D4554455B45624569D6
:100B700045704577457D4584458B4592459945A00F
:100B800045A645AD45B445BB45C145C845CF45D64D
:100B900045DC45E345EA45F145F745FE4505460B8D
:100BA00046124619461F4626462D4633463A4641CA
:100BB0004647464E4655465B46624668466F467611
:100BC000467C4683468946904696469D46A446AA5C
:100BD00046B146B746BE46C446CB46D146D846DEA9
:100BE00046E546EB46F246F846FF4605470C4712F7
:100BF0004718471F4725472C47324739473F474546
:100C0000474C47524758475F4765476C477247789C
:100C1000477F4785478B47924798479E47A547ABF5
:100C200047B147B747BE47C447CA47D147D747DD53
:100C300047E347EA47F047F647FC47034809480FB0
:100C40004815481B48224828482E4834483A48410D
:100C50004847484D48534859485F4865486C487272
:100C60004878487E4884488A48904896489C48A3DB
:100C700048A948AF48B548BB48C148C748CD48D344
:100C800048D948DF48E548EB48F148F748FD4803B4
:100C90004909490F4915491B49214927492D49331C
:100CA0004939493F4945494B49514957495D49638C
:100CB0004969496E4974497A49804986498C499203
:100CC0004998499E49A349A949AF49B549BB49C17A
:100CD00049C749CC49D249D849DE49E449EA49EFF4
:100CE00049F549FB49014A074A0C4A124A184A1E6B
:100CF0004A234A294A2F4A354A3A4A404A464A4CE8
:100D00004A514A574A5D4A634A684A6E4A744A7968
:100D10004A7F4A854A8A4A904A964A9C4AA14AA7EB
:100D20004AAC4AB24AB84ABD4AC34AC94ACE4AD472
:100D30004ADA4ADF4AE54AEA4AF04AF64AFB4A01F9
:100D40004B064B0C4B124B174B1D4B224B284B2D7C
:100D50004B334B394B3E4B9B0D970D930D8F0D8BAA
:100D60000D870D830D7F0D7B0D770D730D6F0DE4DA
:100D7000E5EA00EDEEFF00EEEAF200F1E5ED00E05D
:100D8000E2E300E8FEEB00E8FEED00ECE0E900E065
:100D9000EFF000ECE0F000F4E5E200FFEDE200BF70
:100DA0000DBC0DB90DB60DB30DB00DAD0DC2D1001A
:100DB000D1C100CFD200D7D200D1D000C2D200CF53
:100DC000CD00CAE0EBE8E1F0EEE2EAE0204900CA3B
:100DD000E0EBE8E1F0EEE2EAE0205500DFF0EAEED9
:100DE000F1F2FC204C454420E8EDE42E00DFF0EA6F
:100DF000EEF1F2FC20372DF1E5E3EC2E002020206F
:100E0000426164206D656D6F727920202000202082
:100E1000CDE5F220534420EAE0F0F2FB2020002050
:100E20002020C4E02020202020CDE5F2202020003A
:100E3000CEF7E8F1F2E8F2FC20EFE0ECFFF2FC0084
:100E4000CAEEEFE8F0EEE2E0F2FC20EDE0205344E1
:100E500000CDE0F1F2F0EEE9EAE800CFE0ECFFF2DD
:100E6000FC3A2000D2EEEA3A2000CDE0EFF0FFE6B7
:100E7000E5EDE8E53A2000C4E0F2E020E820E2F009
:100E8000E5ECFF00D0E0F1F5EEE43A200052504DE1
:100E90003A2000CDE0E3F0E5E220E4EE3A20000065
:100EA0000000000000000000000000BA02DC046640
:100EB00006A807BD08B209900A5B0B170CC70C6B9C
:100EC0000D070E9A0E270FAD0F2D10A8101E1190B2
:100ED00011FE116912D01233139413F2134E14A79A
:100EE00014FE145315A615F61545169316DE16288E
:100EF000177117B817FE1742188518C71808194830
:100F0000198619C419011A3C1A771AB11AEA1A2259
:100F10001B591B901BC61BFB1B2F1C631C961CC85C
:100F20001CFA1C2B1D5B1D8B1DBB1DEA1D181E46CC
:100F30001E731EA01ECC1EF81E231F4E1F781FA25C
:100F40001FCC1FF51F1E2046206E209620BD20E4DA
:100F5000200B21312157217C21A121C621EB210F1A
:100F600022332257227A229D22C022E22205232701
:100F70002348236A238B23AC23CD23ED230D242D7B
:100F8000244D246D248C24AB24CA24E92407252570
:100F900025442561257F259D25BA25D725F42511D2
:100FA000262D264A26662682269E26B926D526F096
:100FB000260C27272742275C2777279127AC27C6AF
:100FC00027E027FA2713282D284628602879289219
:100FD00028AB28C428DC28F5280D2925293E2956C8
:100FE000296E2985299D29B529CC29E329FB2912B8
:100FF0002A292A402A562A6D2A842A9A2AB02AC7E0
:101000002ADD2AF32A092B1F2B352B4A2B602B753F
:101010002B8B2BA02BB52BCA2BDF2BF42B092C1ED3
:101020002C332C472C5C2C702C842C992CAD2CC18F
:101030002CD52CE92CFD2C112D242D382D4C2D5F79
:101040002D722D862D992DAC2DBF2DD22DE52DF88D
:101050002D0B2E1E2E302E432E562E682E7B2E8DBF
:101060002E9F2EB12EC42ED62EE82EFA2E0C2F1E19
:101070002F2F2F412F532F642F762F872F992FAA91
:101080002FBC2FCD2FDE2FEF2F0030113022303329
:1010900030443055306630763087309830A830B9DB
:1010A00030C930DA30EA30FA300B311B312B313BAA
:1010B000314B315B316B317B318B319B31AA31BA92
:1010C00031CA31D931E931F9310832183227323693
:1010D00032463255326432733283329232A132B0A8
:1010E00032BF32CE32DD32EC32FA320933183327D6
:1010F00033353344335233613370337E338C339B17
:1011000033A933B833C633D433E233F033FF330D6E
:10111000341B34293437344534533461346E347CD1
:10112000348A349834A634B334C134CF34DC34EA4E
:1011300034F7340535123520352D353A35483555D7
:1011400035623570357D358A359735A435B135BE74
:1011500035CB35D835E535F235FF350C3619362621
:101160003632363F364C365936653672367F368BD8
:10117000369836A436B136BD36CA36D636E336EFA3
:1011800036FB360837143720372C37393745375177
:10119000375D376937753781378E379A37A637B15C
:1011A00037BD37C937D537E137ED37F9370538104F
:1011B000381C38283834383F384B38563862386E47
:1011C000387938853890389C38A738B338BE38CA53
:1011D00038D538E038EC38F73802390E3919392467
:1011E000392F393A39463951395C39673972397D85
:1011F00039883993399E39A939B439BF39CA39D5B3
:1012000039E039EB39F639003A0B3A163A213A2BE4
:101210003A363A413A4C3A563A613A6C3A763A8121
:101220003A8B3A963AA03AAB3AB53AC03ACA3AD56E
:101230003ADF3AEA3AF43AFE3A093B133B1D3B28BF
:101240003B323B3C3B473B513B5B3B653B6F3B7A17
:101250003B843B8E3B983BA23BAC3BB63BC03BCA7E
:101260003BD43BDE3BE83BF23BFC3B063C103C1AEC
:101270003C243C2E3C383C413C4B3C553C5F3C695B
:101280003C723C7C3C863C903C993CA33CAD3CB6DB
:101290003CC03CCA3CD33CDD3CE63CF03CFA3C0361
:1012A0003D0D3D163D203D293D333D3C3D453D4FE7
:1012B0003D583D623D6B3D743D7E3D873D903D9A7E
:1012C0003DA33DAC3DB63DBF3DC83DD13DDA3DE41B
:1012D0003DED3DF63DFF3D083E113E1B3E243E2DBB
:1012E0003E363E3F3E483E513E5A3E633E6C3E7562
:1012F0003E7E3E873E903E993EA23EAB3EB43EBD12
:101300003EC53ECE3ED73EE03EE93EF23EFA3E03CB
:101310003F0C3F153F1D3F263F2F3F383F403F4981
:101320003F523F5A3F633F6C3F743F7D3F863F8E45
:101330003F973F9F3FA83FB03FB93FC23FCA3FD30F
:101340003FDB3FE43FEC3FF43FFD3F05400E4016DE
:10135000401F4027402F40384040404840514059AE
:101360004061406A4072407A4083408B4093409B8A
:1013700040A440AC40B440BC40C540CD40D540DD69
:1013800040E540ED40F540FE4006410E4116411E4D
:101390004126412E4136413E4146414E4156415E35
:1013A0004166416E4176417E4186418E4196419E25
:1013B00041A641AE41B641BE41C541CD41D541DD19
:1013C00041E541ED41F541FC4104420C4214421B10
:1013D0004223422B4233423A4242424A425242590B
:1013E000426142694270427842804287428F42970E
:1013F000429E42A642AD42B542BD42C442CC42D317
:1014000042DB42E242EA42F242F94201430843101F
:101410004317431F4326432D4335433C4344434B2B
:101420004353435A4361436943704378437F438640
:10143000438E4395439C43A443AB43B243BA43C159
:1014400043C843D043D743DE43E543ED43F443FB76
:101450004302440944114418441F4426442D443592
:10146000443C4443444A44514458445F4467446EB6
:101470004475447C4483448A44914498449F44A6E0
:1014800044AD44B444BB44C244CA44D144D844DF0C
:1014900044E644EC44F344FA44014508450F45163C
:1014A000451D4524452B4532453945404547454D69
:1014B0004554455B4562456945704577457D4584A2
:1014C000458B4592459945A045A645AD45B445BBDC
:1014D00045C145C845CF45D645DC45E345EA45F11C
:1014E00045F745FE4505460B46124619461F46265A
:1014F000462D4633463A46414647464E4655465B9C
:1015000046624668466F4676467C468346894690E4
:101510004696469D46A446AA46B146B746BE46C430
:1015200046CB46D146D846DE46E546EB46F246F87F
:1015300046FF4605470C47124718471F4725472CCB
:1015400047324739473F4745474C47524758475F1F
:101550004765476C47724778477F4785478B479277
:101560004798479E47A547AB47B147B747BE47C4D3
:1015700047CA47D147D747DD47E347EA47F047F631
:1015800047FC47034809480F4815481B482248288C
:10159000482E4834483A48414847484D48534859EE
:1015A000485F4865486C48724878487E4884488A55
:1015B00048904896489C48A348A948AF48B548BBBE
:1015C00048C148C748CD48D348D948DF48E548EB2B
:1015D00048F148F748FD48034909490F4915491B97
:1015E00049214927492D49334939493F4945494B03
:1015F00049514957495D49634969496E4974497A76
:1016000049804986498C49924998499E49A349A9EC
:1016100049AF49B549BB49C149C749CC49D249D865
:1016200049DE49E449EA49EF49F549FB49014A07DE
:101630004A0C4A124A184A1E4A234A294A2F4A3556
:101640004A3A4A404A464A4C4A514A574A5D4A63D6
:101650004A684A6E4A744A794A7F4A854A8A4A9059
:101660004A964A9C4AA14AA74AAC4AB24AB84ABDDD
:101670004AC34AC94ACE4AD44ADA4ADF4AE54AEA64
:101680004AF04AF64AFB4A014B064B0C4B124B17E9
:101690004B1D4B224B284B2D4B334B394B3E4B00B4
:1016A00011241FBECFEFD0E1DEBFCDBF12E0A0E01E
:1016B000B1E0EEE2F1E600E00BBF02C007900D9250
:1016C000A03DB107D9F724E0A0EDB2E001C01D9222
:1016D000A932B207E1F7E6E9F3E02EE933E087E06B
:1016E000982F917091938695E217F307C9F730917F
:1016F000E002832F90E0FC01EA56FC4F208121118B
:1017000013C0019687709078992324F40197886F0D
:101710009F6F0196382F9927FC01EA56FC4F2081D4
:10172000222379F33093E002305437B986B18868C8
:1017300086B986B1866086B9369A81B3806D81BBE1
:1017400082B3806D82BB9798979A81B3886281BB80
:10175000959880912A03807C8E648F7780932A03EA
:1017600080912903816081788068809329039AD5CC
:10177000C5E0809129036BD4C150D9F780912A0329
:1017800066D484B3817C84BB85B38E6385BB8FD6DE
:10179000EAE6F0E080818062808389B7846089BF57
:1017A00087B3806987BBBA9A8D9A179A1F9A9598C2
:1017B000C29ABE9A8FB581628FBD8EB589608EBD8B
:1017C000BD9AC59A80E094E290938700809386004A
:1017D000EAE8F0E080818A608083EDE7F0E08081D4
:1017E000806180838DE180937000109271008FEF93
:1017F0008093730084E0809374001092900087E1DE
:1018000089B95998539A8AB180698AB9E5E9F0E0B3
:1018100080818660808314988AB783608ABF85B58B
:10182000836085BD0E9414140C9495300C940000C4
:101830002FB7F894E4E6F0E08081886080838DE73C
:1018400093E00197F1F700C000008081877F8083DB
:1018500095E09A95F1F78091630083FD2CC01FC03D
:10186000908193FD13C01BC0808183FD08C082E07E
:101870008A95F1F700C09F5FB9F701C091E02FBFD3
:10188000789481E091111FC080E0089592E09A95CC
:10189000F1F700C0815021F72FBF7894089580910F
:1018A000630083FDEBCF82E08A95F1F700C092E000
:1018B000E3E6F0E0D9CF92E09A95F1F700C080E43A
:1018C000E3E6F0E0CDCF08952FB7F894E4E6F0E03A
:1018D00090819860908395E09A95F1F7882319F0AC
:1018E0008081877F80838BE98A95F1F7E4E6F0E0D9
:1018F0008081877F808395E09A95F1F72FBF789458
:101900000895CF93DF93D82FC8E08D2F8170DCDF4F
:10191000D695C150D1F7DF91CF9108959FB7F89434
:10192000E4E6F0E080818860808325E02A95F1F785
:101930008081877F80838FE08A95F1F780916300B3
:101940002CE82A95F1F700009FBF789483FB882745
:1019500080F908951F93CF93DF93C0E0D0E010E0AB
:10196000DDDF282F30E00C2E02C0220F331F0A9437
:10197000E2F7122B2196C830D10591F7812FDF9124
:10198000CF911F910895E82FF0E0EE0FFF1FEF5168
:10199000FD4F8081918108951F920F920FB60F9293
:1019A00011240BB60F920F931F932F933F934F93D6
:1019B0005F936F937F938F939F93AF93BF93CF93D7
:1019C000DF93EF93FF9384B125B1C091E002D0E0A3
:1019D00090E0922B092E000CAA0BBB0BFE01EE0F20
:1019E000FF1FEE0FFF1FEF50FD4F408151816281BD
:1019F00073818C019D01040F151F261F371FC9011C
:101A0000B8010083118322833383FE01EE0FFF1F91
:101A1000E053FD4F208131812F5F3F4F243F11E084
:101A2000310741F0FE01EE0FFF1FE053FD4F318300
:101A300020831EC08E01000F111FF801E053FD4FDF
:101A40001182108224EF31E040E050E00E947C2DB2
:101A5000F801EF51FD4F31832083FE01EE0FFF1F90
:101A6000EE0FFF1FEF50FD4F108211821282138282
:101A7000CE01019687709078992324F40197886F9E
:101A80009F6F0196382F8093E0029927FC01EA5658
:101A9000FC4F2081211113C0019687709078992303
:101AA00024F40197886F9F6F0196382F9927FC01C6
:101AB000EA56FC4F2081222379F33093E00287B16C
:101AC000807F380F37B9369AFF91EF91DF91CF9130
:101AD000BF91AF919F918F917F916F915F914F9146
:101AE0003F912F911F910F910F900BBE0F900FBE42
:101AF0000F901F901895EEE9F3E080ED808311823E
:101B0000209153038DEC289F912D11249695969545
:101B1000969530E1939FA0011124990F392F330F2F
:101B2000330F930F291B242B228320915403289FCA
:101B3000912D112496959695969530E1939FA0014D
:101B40001124990F392F330F330F930F291B242B97
:101B5000238320911401289F912D11249695969509
:101B6000969530E1939FA0011124990F392F330FDF
:101B7000330F930F291B242B248320911501289FB9
:101B8000912D112496959695969530E1939FA001FD
:101B90001124990F392F330F330F930F291B242B47
:101BA000258320911801289F912D112496959695B3
:101BB000969530E1939FA0011124990F392F330F8F
:101BC000330F930F291B242B268320911701289F65
:101BD000912D112496959695969530E1939FA001AD
:101BE0001124990F392F330F330F930F291B242BF7
:101BF000278390911601989F812D112486958695B3
:101C0000869540E1849F90011124880F382F330F6F
:101C1000330F830F981B922B908780E181876AE0B6
:101C2000CF010C94292A0895CF93DF93CEE9D3E016
:101C300080ED8883198262E0CE010E94292A81ED1D
:101C4000888368E0CE010E94292A68E0CE010E94C4
:101C5000572A8981982F92959F70990F292F220FCB
:101C6000220F920F8F70890F809353038A81982FD0
:101C700092959F70990F292F220F220F920F8F702C
:101C8000890F809354038B81982F92959F70990FA1
:101C9000292F220F220F920F8F70890F809314012A
:101CA0008C81982F92959F70990F292F220F220FC8
:101CB000920F8F70890F809315018D81982F9295C7
:101CC0009F70990F292F220F220F920F8F70890F6B
:101CD000809318018E81982F92959F70990F292FCC
:101CE000220F220F920F8F70890F809317018F811F
:101CF000982F92959F70990F292F220F220F920FE4
:101D00008F70890F80931601DF91CF910895809194
:101D10001203811121C08CDD882319F18CECF1DDD7
:101D200080911103811106C084E4EBDD81E0809392
:101D3000120312C08EEBE5DD0DDE809317030ADE81
:101D400090E0982F882720911703822B90931603F9
:101D5000809315031092110380911503909116033F
:101D6000089580E090E00895CF93DF93EC01BC01EB
:101D70006F70772780E090E00E943C2C20E030E4F8
:101D80004CE154E40E94F22C20E030E048E452E4BC
:101D90000E94402B20E030E048EC52E40E94A82B47
:101DA0000E94102CD295C295CF70CD27DF70CD2721
:101DB00044E64C9F90014D9F300D1124C901860FC0
:101DC000971FDF91CF910895E199FECF9FBB8EBB06
:101DD0006DBBF894E29AE19A78940895E199FECF68
:101DE0009FBB8EBBE09A8DB308951F93CF93DF9373
:101DF000EC01172FE9DF612FCE010196E5DFDF91BE
:101E0000CF911F9108950F931F93CF93DF938C0170
:101E10000196E4DFC82FD0E0DC2FCC270000C801FA
:101E2000DDDF9E01280F311DC901DF91CF911F9188
:101E30000F9108952F923F924F925F926F927F92EF
:101E40008F929F92AF92BF92CF92DF92EF92FF92CA
:101E50000F931F93CF93DF93CDB7DEB728970FB6BD
:101E6000F894DEBF0FBECDBF9C838B837E836D83D2
:101E700058874F83CA0101979C0136952795329563
:101E800022952F7023273F7023273A832983232B02
:101E900009F478C05B01CB80DC80812C912C0F2E63
:101EA000F8EAEF2EF3E0FF2EF02D0F2EF0EA2F2EA2
:101EB000F02D3E2C4F2C37C032E03A95F1F700C0A0
:101EC000809171038111F8CFF701208251826282E3
:101ED000EBEAF3E0A72DB02F8D91819323E0EB3C4B
:101EE000F207D1F763E2832D942D0E94292A0E94E4
:101EF000212A809318038F3F41F0115009F47EC0CE
:101F0000809171038111D8CFDFCF3FEF831A930AFD
:101F100080E2C80ED11C90E2A90EB11CE981FA81C1
:101F20008E169F0679F15D2C6C2C13E07A2C0B2D0C
:101F3000E7CFF2E0FA95F1F700C0809171038111CB
:101F4000F8CFF801908281827282BB2039F0D701EC
:101F5000F6018D918193E415F505D9F7662DC80139
:101F60000E94292A0E94212A809318038F3F09F496
:101F700045C0AA94AA2009F441C08091710381113F
:101F8000D8CFDFCF7980770C770C770C770C770C74
:101F9000BF80B718E980FA80EE0CFF1CEE0CFF1C26
:101FA000EE0CFF1CEE0CFF1CEE0CFF1C8B819C81C9
:101FB0008E0D9F1D892E0F2EF3E0AF2EF02D08EA17
:101FC00013E00F2EF0EA9F2EF02DFB817F0E2D8166
:101FD0003E81E20EF31E0F2EFBEACF2EF3E0DF2E42
:101FE000F02D8FEF8B0D90E0FC01E455FC4F2F019D
:101FF0000F2EF3E06F2EF02D6B0CBFCF28960FB68F
:10200000F894DEBF0FBECDBFDF91CF911F910F912E
:10201000FF90EF90DF90CF90BF90AF909F908F9008
:102020007F906F905F904F903F902F90089528E0A1
:1020300030E090E89598492F482311F0939A01C019
:102040009398959A969521503109A1F70895949AFD
:102050009698EDDF9598969A0895883A89F038F425
:102060008823B1F090EE980F9E35E0F016C0883BC3
:1020700059F098F0803C88F090EC6DE074E015C069
:10208000982F6DE475E011C0982F62E575E00DC0E2
:1020900090E267E372E080E208C090E267E372E0FA
:1020A0008FE303C090E267E372E0282F30E0291B42
:1020B0003109A901440F551F440F551FCA01820F52
:1020C000931F860F971F08950F931F93CF93DF934E
:1020D000C4DFEC018C010B5F1F4FFE01219685913F
:1020E000A6DFC017D107C9F7DF91CF911F910F91DC
:1020F0000895CF92DF92EF92FF920F931F93CF93A9
:10210000DF93C62FD42EA9DF7C018C2FA6DFE70139
:102110008C0185E0E80EF11CCD2CFE012196859105
:10212000F8010F5F1F4F9591DD2051F02C2D392FB5
:10213000331F3327331F880F832B990F2150B9F793
:1021400076DFCE15DF0549F7DF91CF911F910F9113
:10215000FF90EF90DF90CF900895AF92BF92CF9213
:10216000DF92EF92FF920F931F93CF93DF93C62FCF
:10217000B42E73DF7C018C2F70DFE7018C0185E0CA
:10218000E80EF11CAB2C6894CC24C7F8D12CFE01CE
:1021900021968591F8010F5F1F4F9591BB2059F053
:1021A0002A2D869590FD02C03D2D01C03C2D832B2C
:1021B00096952150B1F73BDFCE15DF0541F7DF9152
:1021C000CF911F910F91FF90EF90DF90CF90BF9034
:1021D000AF90089588235CF470E0DB01A75EBC4FEC
:1021E000FB01E553FC4F6C91808183CF089570E033
:1021F000DB01A75EBC4FFB01E553FC4F6C91808176
:10220000ACCF0895FB0101900020E9F731972E2F04
:10221000261BFC01DB0190E030E2921710F03083C6
:1022200002C08C9180839F5F319611969031A9F7FF
:1022300008950F931F93CF93DF9394989698CBECC8
:10224000D3E00BED13E089913FDFC017D107D9F739
:102250009598969ADF91CF911F910F910895BC01A7
:102260008BEC93E0CFDFE5CF0895CF93DF93CDB72D
:10227000DEB760970FB6F894DEBF0FBECDBF40E16A
:1022800050E0BC01CE0101960E94BD2DCE01019609
:10229000E6DF60960FB6F894DEBF0FBECDBFDF91CC
:1022A000CF91089586E392E0E0CF08958F709091EA
:1022B0002A03907F892B80932A03C9CE08958370C7
:1022C000982F9295907F80912A038F7C892B809301
:1022D0002A03BDCE08950F931F93CF93DF93162F3C
:1022E000BC0189E193E08EDFD1E000E094989698FC
:1022F000C02F4D2F6C2F812F6DDFCF5FC031C9F7FD
:102300009598969A8FEF9FE80197F1F700C000002B
:10231000DF5FD93059F780E1E9E1F3E0ABECB3E0FE
:1023200001900D928A95E1F7DF91CF911F910F9166
:1023300008958F929F92AF92BF92CF92DF92EF92C9
:10234000FF920F931F93CF93DF93BC0189E193E03A
:1023500059DF0F2EFEE2AF2EF3E0BF2EF02D0F2E31
:10236000FBEF9F2EF02D0F2EFAEDCF2EF3E0DF2E98
:10237000F02D0F2EFBEDEF2EF3E0FF2EF02DCCEC29
:10238000D3E00BEC13E06894882485F81DC08E918F
:102390008293EC17FD07D9F719141CF0F80180821D
:1023A00004C0F5018081F8018083C80158DF8FEFF8
:1023B0009FE80197F1F700C00000939491E0A91AFB
:1023C000B108E1E19E1619F0D601F701E0CF80E1F6
:1023D000E9E1F3E0ABECB3E001900D928A95E1F70F
:1023E000DF91CF911F910F91FF90EF90DF90CF90F1
:1023F000BF90AF909F908F900895AF92BF92CF9271
:10240000DF92EF92FF920F931F93CF93DF93BC0164
:1024100089E193E0F7DE0F2EF3E1CF2EF3E0DF2E1C
:10242000F02D0F2EFAEFBF2EF02D0F2EFCECEF2E1D
:10243000F3E0FF2EF02D0BEC13E0CBEDD3E068942E
:10244000AA24A5F81DC081918D93EC17FD07D9F73B
:10245000BB201CF4F801A78604C0F6018081F801B6
:102460008787C801FCDE8FEF9FE80197F1F700C076
:102470000000B3949FEFC91AD90AE0E1BE1619F023
:10248000F701D801E0CF80E1E9E1F3E0ABECB3E0A4
:1024900001900D928A95E1F7DF91CF911F910F91F5
:1024A000FF90EF90DF90CF90BF90AF90089583B7EB
:1024B000846083BF87B7816087BF0895A29AAA9876
:1024C00086EF8A95F1F79D9B06C09C9B06C09B9961
:1024D00006C083E005C081E003C082E001C080E067
:1024E000AA9AA298A19AA99896EF9A95F1F79D9B1E
:1024F00006C09C9B06C09B9905C086E003C084E093
:1025000001C085E0A99AA198A09AA89896EF9A95FB
:10251000F1F79D9B4FC09C9B4FC09B9B4FC0A89ABF
:10252000A098882309F43FC090913003992381F04B
:1025300090912F03933020F496E99093010103C00A
:1025400092E390930101909101019093000103C0E7
:1025500095E09093010120913103243131F49EE103
:1025600090933103809332030895422F50E080917D
:10257000010190E044964817590724F42F5F2093F7
:10258000310308958091000190E04496481759075F
:10259000CCF01092310380912F038F3F99F08F5F21
:1025A00080932F03089510923003109231031092FC
:1025B0002F03089589E003C088E001C087E0A89A4E
:1025C000A098B2CF089580913203109232030895FB
:1025D0001F920F920FB60F9211240BB60F922F93EA
:1025E0003F934F935F936F937F938F939F93AF939B
:1025F000BF93EF93FF9362DF80912D0390912E03A1
:10260000823C21E0920731F0019690932E03809353
:102610002D0304C010922E0310922D0380913303DA
:102620008823A1F080912B0390912C03823C21E020
:10263000920731F0019690932C0380932B0306C0F0
:1026400010922C0310922B031092330380911203EB
:10265000882349F08091130390911403019690937D
:102660001403809313038091130390911403823514
:10267000914049F410921203109214031092130324
:1026800081E08093110380913F038F3F41F08F5F82
:1026900080933F03813E19F481E080933E03809153
:1026A0007103882319F0815080937103FF91EF919A
:1026B000BF91AF919F918F917F916F915F914F915A
:1026C0003F912F910F900BBE0F900FBE0F901F9058
:1026D00018951F920F920FB60F9211240BB60F92FE
:1026E0002F933F934F935F936F937F938F939F931A
:1026F000AF93BF93CF93DF93EF93FF9381E08093EA
:10270000520310923F0310923E03D0914703C091B1
:102710004603DC9FC001112468EE73E00E94692D1E
:102720008091440390914503AB01480F591F50938A
:1027300045034093440380913D03882309F45FC01F
:1027400080913803811158C0EFEDF3E01082809141
:102750001801818380911701828380911601838300
:1027600080911501848380911401858380915403A5
:102770008683809153038783209112013091130146
:102780003695279536952795ABE7B4E10E94A72D9E
:10279000969587958087209110013091110136958B
:1027A0002795369527950E94A72D96958795818721
:1027B00080914003828720914103309142033695F6
:1027C0002795369527950E94A72D969587958387FF
:1027D00020913B0330913C033695279536952795FC
:1027E0000E94A72D969587958487D587C6874787AA
:1027F0008EE18093380303C0815080933803FF91AA
:10280000EF91DF91CF91BF91AF919F918F917F9188
:102810006F915F914F913F912F910F900BBE0F9051
:102820000FBE0F901F9018957894FED980E090E02D
:10283000EADA019639F080E090E0E5DA909313014E
:102840008093120182E090E0DEDA019639F082E0B6
:1028500090E0D9DA909311018093100186E090E026
:10286000BDDA8F3F29F086E090E0B8DA8093080166
:1028700088E090E0B3DA8F3F29F088E090E0AEDAAC
:10288000809306018AE090E0BEDA019639F08AE092
:1028900090E0B9DA909303018093020189E090E01F
:1028A0009DDA8F3F29F089E090E098DA8093070164
:1028B0008CE090E0A8DA019639F08CE090E0A3DAA1
:1028C00090930501809304010F2EF8E48F2EF1E020
:1028D0009F2EF02D0F2EFBEDCF2EF3E0DF2EF02DEF
:1028E0000F2EF4E63F2EF02D0F2EF4E46F2EF1E0C4
:1028F0007F2EF02D4C2C5D2C0F2EF7E32F2EF02D7C
:102900000E94202780915203882319F08DD91092BC
:102910005203FDD929DA90933C0380933B0380E076
:1029200032D8909349038093480381E02CD8909348
:102930004F0380934E0382E026D88C0190934B0383
:1029400080934A03E0914E03F0914F03EE0FFF1F77
:10295000E95AFA4FC591D4915E01D0934D03C093CB
:102960004C03E0901201F0901301B7016C1B7D0B3A
:1029700070933A0360933903CB01772324F48827BB
:102980009927861B970B893C910544F010922101F1
:10299000109222011092230110922401072E000CA4
:1029A000880B990B0E943E2C20E030E048EC52E46A
:1029B0000E94A82B6093390170933A0180933B01E8
:1029C00090933C0180913D03882309F477C0809166
:1029D0004303882361F180915B03843099F481E0A3
:1029E000809330038093330348EAE41641E6F4060B
:1029F00008F04AC054E6E50EF11CF0921301E09293
:102A0000120142C0833009F03FC081E0809330035F
:102A10008093330381EDE81687E0F806A8F124E6F9
:102A2000E21AF108F0921301E09212012DC0809198
:102A30005B038430A1F481E08093300380933303FF
:102A40008091100190911101803F9A40E8F454E682
:102A5000E50EF11CF0921301E092120115C08330D3
:102A600099F481E0809330038093330380911001C7
:102A700090911101893C910538F084E6E81AF1083B
:102A8000F0921301E09212018091120190911301D2
:102A9000805D9740A816B90648F480910E01909188
:102AA0000F01909351038093500308C0809110014F
:102AB000909111019093510380935003409107012D
:102AC0002091480330914903429FC001439F900DDC
:102AD000112460910401709105010E94552D6093AD
:102AE0004603A09106019801B0E00E94A72D209115
:102AF00002013091030140E050E00E947C2D2093C0
:102B0000470380914303882309F447C0809133032E
:102B10008823B9F0809111018F93809110018F93D8
:102B20007F926F92DF92CF920E94CC2D68E0842D2D
:102B3000952D90D10F900F900F900F900F900F90B8
:102B40008DC020916103309162032E5C3F4F36951A
:102B5000279536952795ABE7B4E10E94A72D96956A
:102B60008795389E9001399E300D11243093420391
:102B7000209341033F932F937F926F92DF92CF92E6
:102B80000E94CC2D68E0842D952D64D10F900F907C
:102B90000F900F900F900F9061C0809133038823A6
:102BA00009F1209112013091130136952795369540
:102BB0002795ABE7B4E10E94A72D969587959F9343
:102BC0008F939F928F92DF92CF920E94CC2D6CE0D8
:102BD000842D952D3FD10F900F900F900F900F9057
:102BE0000F903CC020913B0330913C03C9018851B8
:102BF0009C4FA816B90678F42E5C3F4F3695279562
:102C000036952795ABE7B4E10E94A72D9695879559
:102C1000809340030FC09E012E5C3F4F3695279551
:102C200036952795ABE7B4E10E94A72D9695879539
:102C300080934003809140031F928F939F928F92C5
:102C4000DF92CF920E94CC2D6CE0842D952D02D185
:102C50000F900F900F900F900F900F9080915B034B
:102C6000873089F480913D03811167C0C79A87B787
:102C7000806487BF89B7806189BF20925F0381E04C
:102C800080933D035AC0893009F04EC080913D03C6
:102C9000882309F452C0C498C79887B78F7B87BF31
:102CA00089B78F7E89BF10926E0310926D031092C8
:102CB0006C03109268031092690310926A031092D9
:102CC0006B0381E0809342011092670310926603C8
:102CD00010926403109265031092660310926703CA
:102CE00010926203109261031092510310925003EC
:102CF00010925F0319BC18BC10925D03C59A109224
:102D000021011092220110922301109224011092AD
:102D1000310110923201109233011092340110925D
:102D2000380310923D0309C0883039F481E0909156
:102D30004303911180E080934303809135038823FE
:102D400009F4DECD40E150E06FED73E08091360391
:102D5000909137036FD880930D018F3F99F0609168
:102D600036037091370380910A0190E03ED880913C
:102D70000A018E3C20F48E5F80930A0103C081E03B
:102D8000809334032091360330913703203F4FE185
:102D9000340740F5205F3F4F3093370320933603CD
:102DA000329522952F7023273F702327A9E0B0E1A9
:102DB0000E94A72D96958795929582958F70892769
:102DC0009F70892748E15CEF849F9001859F300DBB
:102DD000949F300D1124C90188519C4F90930C0190
:102DE00080930B01109235038BCD98E0882314F467
:102DF000C29A01C0C298959A880F95989150B1F7E0
:102E000008951F98F2DF1F9A0895DF92EF920F93B3
:102E10001F93CF93DF93182FC62FD42ED22F1F9836
:102E200020E1E29EC0011124802BDFDF20E1D29F50
:102E3000C00111248D29D9DF20E1C29FC0011124D6
:102E4000812BD3DF1F9ADF91CF911F910F91EF90CC
:102E5000DF9008952F923F924F925F926F927F92F0
:102E60008F929F92AF92BF92CF92DF92EF92FF929A
:102E70000F931F93CF93DF9300D000D01F92CDB755
:102E8000DEB7562EFE01319625E0DF011D922A9510
:102E9000E9F77C016C01B6E0CB0ED11C0FEF61E3CA
:102EA00074ED80E090E00F2EFFE04F2EF02D0F2EFE
:102EB000FEE03F2EF02D0F2EFDE02F2EF02D11E025
:102EC00066246394712CCCC12AE030E040E050E0ED
:102ED0000E947C2DAFEFA60F622F732F842F952FAA
:102EE000B0E0E1E0F0E0EC0FFD1FEA0FFB1F808295
:102EF000912CF401B097E635F10508F0AAC1EA5B20
:102F0000FF4F0C949E2DE1E0F0E0EC0FFD1FEA0F67
:102F1000FB1F10821196930102C0220F331FAA9546
:102F2000E2F7209502239CC1E1E0F0E0EC0FFD1FE9
:102F3000EA0FFB1F10831196930102C0220F331F6B
:102F4000AA95E2F7209502238BC1E1E0F0E0EC0FB7
:102F5000FD1FEA0FFB1F22E020831196930102C0A0
:102F6000220F331FAA95E2F72095022379C1E1E0F1
:102F7000F0E0EC0FFD1FEA0FFB1F33E030831196EA
:102F8000930102C0220F331FAA95E2F72095022376
:102F900067C1E1E0F0E0EC0FFD1FEA0FFB1F24E04A
:102FA00020831196930102C0220F331FAA95E2F7E6
:102FB0002095022355C1E1E0F0E0EC0FFD1FEA0F80
:102FC000FB1F35E030831196930102C0220F331F9F
:102FD000AA95E2F72095022343C1E1E0F0E0EC0F6F
:102FE000FD1FEA0FFB1F26E020831196930102C00C
:102FF000220F331FAA95E2F72095022331C1E1E0A9
:10300000F0E0EC0FFD1FEA0FFB1F37E03083119655
:10301000930102C0220F331FAA95E2F720950223E5
:103020001FC1E1E0F0E0EC0FFD1FEA0FFB1F28E0FD
:1030300020831196930102C0220F331FAA95E2F755
:10304000209502230DC1E1E0F0E0EC0FFD1FEA0F37
:10305000FB1F39E030831196930102C0220F331F0A
:10306000AA95E2F720950223FBC0E1E0F0E0EC0F27
:10307000FD1FEA0FFB1F2AE020831196930102C077
:10308000220F331FAA95E2F720950223E9C0E1E061
:10309000F0E0EC0FFD1FEA0FFB1F3BE030831196C1
:1030A000930102C0220F331FAA95E2F72095022355
:1030B000D7C0E1E0F0E0EC0FFD1FEA0FFB1F2CE0B2
:1030C00020831196930102C0220F331FAA95E2F7C5
:1030D00020950223C5C0E1E0F0E0EC0FFD1FEA0FF0
:1030E000FB1F20821196930102C0220F331FAA9565
:1030F000E2F720950223B4C0E1E0F0E0EC0FFD1F01
:10310000EA0FFB1F30821196930102C0220F331F7A
:10311000AA95E2F720950223A3C0E1E0F0E0EC0FCE
:10312000FD1FEA0FFB1F40821196930102C0220F80
:10313000331FAA95E2F72095022392C0E1E0F0E068
:10314000EC0FFD1FAE0FBF1F1C928AC021E030E0C4
:103150002C0F3D1FA20FB31F1C9382C0E1E0F0E0D3
:10316000EC0FFD1FAE0FBF1FF2E0FC9379C021E012
:1031700030E02C0F3D1FA20FB31F33E03C9370C013
:10318000E1E0F0E0EC0FFD1FAE0FBF1FF4E0FC9399
:1031900067C021E030E02C0F3D1FA20FB31F35E0C8
:1031A0003C935EC0E1E0F0E0EC0FFD1FAE0FBF1FEF
:1031B000F6E0FC9355C021E030E02C0F3D1FA20F3C
:1031C000B31F37E03C934CC0E1E0F0E0EC0FFD1F93
:1031D000AE0FBF1FF8E0FC9343C021E030E02C0F9E
:1031E0003D1FA20FB31F39E03C933AC0E1E0F0E08D
:1031F000EC0FFD1FAE0FBF1FFAE0FC9331C021E0C2
:1032000030E02C0F3D1FA20FB31F3BE03C9328C0C2
:10321000E1E0F0E0EC0FFD1FAE0FBF1FFCE0FC9300
:103220001FC021E030E02C0F3D1FA20FB31F2C92D6
:1032300017C0E1E0F0E0EC0FFD1FAE0FBF1F3C92A6
:103240000FC021E030E02C0F3D1FA20FB31F4C92A6
:1032500007C0E1E0F0E0EC0FFD1FAE0FBF1F1C92B6
:10326000D7018D907D01882021F0AC15BD0509F0B6
:103270002BCE802FC6DDE52C0D812C814B816A8100
:103280008981C3DD0F900F900F900F900F90DF9109
:10329000CF911F910F91FF90EF90DF90CF90BF9053
:1032A000AF909F908F907F906F905F904F903F90E6
:1032B0002F90089520915A03223049F018F42130BC
:1032C00059F018C0233071F0243081F013C01092EF
:1032D0005A0361E000C8089510925A036FEF0C94EE
:1032E0006B11089510925A0324C8089510925A033E
:1032F00084C808950C942F1108952F923F924F92F5
:103300005F926F927F928F929F92AF92BF92CF9275
:10331000DF92EF92FF920F931F93CF93DF93009171
:1033200018017090170110911601509015018090AE
:1033300014019090540366246394412C0F2EFEECEC
:10334000AF2EF1E0BF2EF02DC2E0D4E00F2EFDE451
:10335000EF2EF1E0FF2EF02D0F2EF7EBCF2EF1E048
:10336000DF2EF02D0F2EF3E62F2EF1E03F2EF02D65
:103370008091570390E0FC0187309105E0F7E45617
:10338000FF4F0C949E2DE0911501F0E0EE0FFF1F12
:10339000E356F24F659174918FEF93E00E94B62D42
:1033A000E72DEE0FFF0BEB5AF24F659174918FEE04
:1033B00093E00E94B62D812F012E000C990B9F9354
:1033C0001F938FEE93E09F938F93802F002E000C1E
:1033D000990B9F930F938FEF93E09F938F93892D7A
:1033E000092C000C990B9F939F92882D082C000CA0
:1033F000990B9F938F92FF92EF92DF93CF930E944E
:10340000CC2DCE0157DF60925703ADB7BEB75096B3
:103410000FB6F894BEBF0FBEADBFAACFE0911501A5
:10342000F0E0EE0FFF1FE356F24F659174918FEFBE
:1034300093E00E94B62DE72DEE0FFF0BEB5AF24FF3
:10344000659174918FEE93E00E94B62D80912D03CB
:1034500090912E038836914090F5812F012E000C1B
:10346000990B9F931F938FEE93E09F938F93802FE1
:10347000002E000C990B9F930F938FEF93E09F9377
:103480008F93892D092C000C990B9F939F92882D67
:10349000082C000C990B9F938F92FF92EF92DF9371
:1034A000CF930E94CC2DCE010E942F11ADB7BEB795
:1034B00050960FB6F894BEBF0FBEADBF2BC0812F84
:1034C000012E000C990B9F931F938FEE93E09F9317
:1034D0008F93802F002E000C990B9F930F938FEFEB
:1034E00093E09F938F93892D092C000C990B9F9348
:1034F0009F923F922F92DF93CF930E94CC2DCE01CB
:103500000E942F118DB79EB70E960FB6F8949EBFEE
:103510000FBE8DBF58D8833061F028F48130D9F1C7
:103520008230F9F025CF8530C1F070F08630E9F0B7
:103530001FCF609230038A9488200CF019CF0F2E91
:10354000F7E18F2EF02D14CF60923003839497E132
:1035500098150CF00DCF842C0BCF82E0809357038D
:1035600007CF86E08093570303CF80921401909297
:103570005403509215010093180170921701109393
:103580001601109253030E947B0D83E080935A032F
:1035900080935803D8C383E080935A0380935803E1
:1035A000D2C3E0911501F0E0EE0FFF1FE356F24F9A
:1035B000659174918FEF93E00E94B62DE72DEE0F89
:1035C000FF0BEB5AF24F659174918FEE93E00E94DE
:1035D000B62D80912D0390912E038836914090F561
:1035E000812F012E000C990B9F931F938FEE93E078
:1035F0009F938F93802F002E000C990B9F930F9316
:103600008FEF93E09F938F93892D092C000C990BDA
:103610009F939F92882D082C000C990B9F938F925B
:10362000FF92EF92DF93CF930E94CC2DCE010E94A8
:103630002F118DB79EB740960FB6F8949EBF0FBE60
:103640008DBF2DC0812F012E000C990B9F931F93CE
:103650008FEE93E09F938F93802F002E000C990B99
:103660009F930F938FEF93E09F938F93882D082C58
:10367000000C990B9F938F92A8E7B1E0BF93AF9393
:10368000DF93CF930E94CC2DCE010E942F11ADB7B6
:10369000BEB71E960FB6F894BEBF0FBEADBF0E9458
:1036A000E312833061F028F48130D1F18230F9F0F7
:1036B0005FCE8530C1F070F08630E1F059CE609277
:1036C00030039A9499200CF053CE0F2EFBE39F2EDB
:1036D000F02D4ECE609230039394BBE3B9150CF0FD
:1036E00047CE942C45CE83E08093570341CE609221
:1036F00057033ECE809214019092540350921501CC
:103700000093180170921701109316011092530341
:103710000E947B0D83E080935A038093580313C368
:1037200083E080935A03809358030DC3E091150101
:10373000F0E0EE0FFF1FE356F24F659174918FEFAB
:1037400093E00E94B62DE72DEE0FFF0BEB5AF24FE0
:10375000659174918FEE93E00E94B62D80912D03B8
:1037600090912E038836914090F5812F012E000C08
:10377000990B9F931F938FEE93E09F938F93802FCE
:10378000002E000C990B9F930F938FEF93E09F9364
:103790008F93892D092C000C990B9F939F92882D54
:1037A000082C000C990B9F938F92FF92EF92DF935E
:1037B000CF930E94CC2DCE010E942F11ADB7BEB782
:1037C00050960FB6F894BEBF0FBEADBF2FC0812F6D
:1037D000012E000C990B9F931F938FEE93E09F9304
:1037E0008F93802F002E000C990B9F930F93892DA0
:1037F000092C000C990B9F939F92882D082C000C8C
:10380000990B9F938F92ACE8B1E0BF93AF93DF9396
:10381000CF930E94CC2DCE010E942F11ADB7BEB721
:103820001E960FB6F894BEBF0FBEADBF0E94E31246
:10383000833061F028F48130D9F18230F9F098CDED
:103840008530C1F070F08630E9F092CD609230039F
:103850005A9415140CF48CCD0F2EF7E05F2EF02D3A
:1038600087CD609230035394B7E0B5150CF080CD4E
:10387000562C7ECD84E0809357037ACD82E08093EE
:10388000570376CD80921401909254035092150103
:1038900000931801709217011093160110925303B0
:1038A0000E947B0D83E080935A03809358034BC2A0
:1038B00083E080935A038093580345C2E091150139
:1038C000F0E0EE0FFF1FE356F24F659174918FEF1A
:1038D00093E00E94B62DE72DEE0FFF0BEB5AF24F4F
:1038E000659174918FEE93E00E94B62D80912D0327
:1038F00090912E038836914090F5812F012E000C77
:10390000990B9F931F938FEE93E09F938F93802F3C
:10391000002E000C990B9F930F938FEF93E09F93D2
:103920008F93892D092C000C990B9F939F92882DC2
:10393000082C000C990B9F938F92FF92EF92DF93CC
:10394000CF930E94CC2DCE010E942F11ADB7BEB7F0
:1039500050960FB6F894BEBF0FBEADBF2DC0812FDD
:10396000012E000C990B9F931F938FEE93E09F9372
:103970008F938FEF93E09F938F93892D092C000CE9
:10398000990B9F939F92882D082C000C990B9F9365
:103990008F92A2EAB1E0BF93AF93DF93CF930E94DF
:1039A000CC2DCE010E942F11ADB7BEB71E960FB61B
:1039B000F894BEBF0FBEADBF0E94E312833061F02A
:1039C00028F48130B9F18230D9F0D2CC8530A1F021
:1039D00058F08630C9F0CCCC6092300301501016FC
:1039E0000CF4C6CC0FE1C4CC609230030F5F003200
:1039F0000CF4BECC062DBCCCB5E0B0935703B8CCCC
:103A000083E080935703B4CC8092140190925403C6
:103A1000509215010093180170921701109316012E
:103A2000109253030E947B0D83E080935A0380938E
:103A3000580389C183E080935A038093580383C15C
:103A4000E0911501F0E0EE0FFF1FE356F24F659194
:103A500074918FEF93E00E94B62DE72DEE0FFF0BD0
:103A6000EB5AF24F659174918FEE93E00E94B62D60
:103A700080912D0390912E038836914090F5812FEF
:103A8000012E000C990B9F931F938FEE93E09F9351
:103A90008F93802F002E000C990B9F930F938FEF25
:103AA00093E09F938F93892D092C000C990B9F9382
:103AB0009F92882D082C000C990B9F938F92FF9258
:103AC000EF92DF93CF930E94CC2DCE010E942F1155
:103AD000ADB7BEB750960FB6F894BEBF0FBEADBF20
:103AE0002DC0812F012E000C990B9F931F93802FC7
:103AF000002E000C990B9F930F938FEF93E09F93F1
:103B00008F93892D092C000C990B9F939F92882DE0
:103B1000082C000C990B9F938F92DF92CF92DF932A
:103B2000CF930E94CC2DCE010E942F118DB79EB74E
:103B30000E960FB6F8949EBF0FBE8DBF0E94E31283
:103B4000833061F028F48130D9F18230F9F010CC63
:103B50008530C1F070F08630E9F00ACC6092300315
:103B60007A9417140CF404CC0F2EFCE07F2EF02D69
:103B7000FFCB6092300373949CE097150CF0F8CB68
:103B8000762CF6CB86E080935703F2CB84E08093CB
:103B90005703EECB8092140190925403509215017A
:103BA000009318017092170110931601109253039D
:103BB0000E947B0D83E080935A0380935803C3C017
:103BC00083E080935A0380935803BDC0E0911501B0
:103BD000F0E0EE0FFF1FE356F24F659174918FEF07
:103BE00093E00E94B62DE72DEE0FFF0BEB5AF24F3C
:103BF000659174918FEE93E00E94B62D80912D0314
:103C000090912E038836914090F5812F012E000C63
:103C1000990B9F931F938FEE93E09F938F93802F29
:103C2000002E000C990B9F930F938FEF93E09F93BF
:103C30008F93892D092C000C990B9F939F92882DAF
:103C4000082C000C990B9F938F92FF92EF92DF93B9
:103C5000CF930E94CC2DCE010E942F118DB79EB71D
:103C600040960FB6F8949EBF0FBE8DBF2BC08FEE4F
:103C700093E09F938F93802F002E000C990B9F93BE
:103C80000F938FEF93E09F938F93892D092C000C56
:103C9000990B9F939F92882D082C000C990B9F9352
:103CA0008F92BF92AF92DF93CF930E94CC2DCE0123
:103CB0000E942F118DB79EB70E960FB6F8949EBF37
:103CC0000FBE8DBF0E94E312833061F028F4813073
:103CD000A9F18230C9F04CCB853099F050F0863094
:103CE000B9F046CB6092300311500AF041CB13E695
:103CF0003FCB609230031F5F14360CF439CB142D88
:103D000037CB6092570334CB95E09093570330CB79
:103D1000809214019092540350921501009318015F
:103D20007092170110931601109253030E947B0D9D
:103D300083E080935A038093580305C083E0809307
:103D40005A0380935803DF91CF911F910F91FF90F9
:103D5000EF90DF90CF90BF90AF909F908F907F902B
:103D60006F905F904F903F902F900895BF92CF92A9
:103D7000DF92EF92FF920F931F93CF93DF9310E0A8
:103D8000C0E0D7E001E00F2EF6E0BF2EF02D0F2EA1
:103D9000F5E0CF2EF02D6894FF24F1F86894DD242F
:103DA000D2F80F2EF3E0EF2EF02D03C0C0E001C0DB
:103DB000C0E08091560390E0FC0188309105E0F767
:103DC000ED55FF4F0C949E2D60E47EE08FEE93E066
:103DD0000E94B62D8FEE93E06DDAF0925603E9CF94
:103DE00060E37EE08FEE93E00E94B62D8FEE93E0CD
:103DF00061DAE0925603DDCF0E94E312833049F08E
:103E000018F48130A1F0D5CF843041F0863059F0DC
:103E1000D0CFF0925A0300935603CBCF00935A03AE
:103E200000935603C6CFD092560310E0C2CF83E072
:103E300080935A0386E080935803CCC00E94E3121B
:103E4000833049F018F48130A1F0B3CF843041F0D1
:103E5000863059F0AECFF0925A0310925603A9CF94
:103E600000935A0310925603A4CFD0925603102FFA
:103E7000A0CF83E080935A0386E080935803AAC0C2
:103E8000CC23B9F06FE17EE08FEE93E00E94B62D77
:103E900080912D0390912E038836914028F48FEE67
:103EA00093E00E942F1175C080EE91E00E942F11C7
:103EB00070C06FE17EE08FEE93E00E94B62D80919E
:103EC0002D0390912E038836914028F48FEE93E0D5
:103ED0000E942F116EC08EEE91E00E942F1169C0DA
:103EE000802FC11180E0C82F64CF802FC11180E0E6
:103EF000C82F5FCF111104C0C0925603C0E059CF44
:103F0000113009F053CFB0925603C0E052CF1111D7
:103F100003C0109256034DCF113009F04ACF0093E1
:103F2000560347CF111104C010925603C0E041CF91
:103F3000113009F03DCF00935603C0E03ACF6EE058
:103F40007EE08FEE93E00E94B62D8FEE93E00E940C
:103F50002F11D09356032DCF0E94E312882309F42A
:103F600028CF111103C01092560323CF113009F04E
:103F700020CF009356031DCF6DEF7DE08FEE93E0D1
:103F80000E94B62D8FEE93E00E942F11D09356031E
:103F900010CF0E94E312823009F4A7CF18F48130C9
:103FA00009F207CF853009F49BCF863009F4A2CF00
:103FB00000CF0E94E312823009F497CF20F48130C1
:103FC00009F4B0CFF6CE853009F48ACF863009F4F3
:103FD0009ECFEFCEDF91CF911F910F91FF90EF9089
:103FE000DF90CF90BF9008952F923F924F925F92B3
:103FF0006F927F928F929F92AF92BF92CF92DF92F9
:10400000EF92FF921F93CF93DF934090090170903E
:10401000080160900701509006010F2EF1E38F2EEA
:10402000F2E09F2EF02DC2E0D4E00F2EFDE1AF2E86
:10403000F2E0BF2EF02D0F2EFEE0CF2EF2E0DF2EAD
:10404000F02D0F2EFFEFEF2EF1E0FF2EF02D40C0F0
:10405000172D07C0172D05C0172D03C0172D01C040
:10406000172D171591F1103148F482E00E945F116D
:10407000812F8F700E945611712E2AC080EF810F00
:10408000803148F481E00E945F11812F8F700E947F
:104090005611712E1DC080EE810F803148F480E0F2
:1040A0000E945F11812F8F700E945611712E10C0D7
:1040B00080ED810F803158F483E00E945F11812FE1
:1040C0008F700E945611712E03C0712E01C0712E87
:1040D000E09155038E2F90E08C30910508F0B8CF19
:1040E000FC01E555FF4F0C949E2D6DEE7DE08FEEAB
:1040F00093E00E94B62D8FEE93E0DCD884E08093AD
:104100005503E6CF6CED7DE08FEE93E00E94B62D77
:104110008FEE93E0CFD885E080935503D9CF6FEC35
:104120007DE08FEE93E00E94B62D8FEE93E0C2D833
:1041300086E080935503CCCF62EC7DE08FEE93E078
:104140000E94B62D8FEE93E0B5D887E0809355039B
:10415000BFCF0E94E312833049F018F48130C1F0E0
:1041600079CF843051F0863079F074CF82E080933B
:104170005A0381E080935503ABCF81E080935A03CB
:1041800023E020935503A4CF88E080935503A0CF6C
:1041900083E080935A0387E0809358031AC20E94F9
:1041A000E312833049F018F48130B1F055CF8430F8
:1041B00049F0863069F050CF82E080935A038093B3
:1041C000550386CF81E080935A031092550380CF28
:1041D00099E0909355037CCF83E080935A0387E066
:1041E00080935803F6C10E94E312833049F018F41B
:1041F0008130B9F033CF843051F0863071F02ECF5A
:1042000082E080935A03A3E0A093550361CF81E03D
:1042100080935A03809355035BCFBAE0B093550364
:1042200057CF83E080935A0387E080935803D1C12E
:104230000E94E312833049F018F48130B9F010CFB6
:10424000843049F0863071F00BCF82E080935A03BE
:10425000109255033DCF81E080935A0382E0809312
:10426000550336CF2BE02093550332CF83E0809364
:104270005A0387E080935803ACC180912D0390913D
:104280002E0388369140A0F41F924F92A4EFB1E024
:10429000BF93AF93DF93CF930E94CC2DCE010E94AA
:1042A0002F110F900F900F900F900F900F904DC106
:1042B0008AEF91E00E942F1148C181E08093300382
:1042C000442009F405CF4A944A9402CF81E08093B8
:1042D0003003A3E6A41508F4FBCE43944394F8CE30
:1042E0004092090110925503F3CE409009011092BB
:1042F0005503EECE80912D0390912E038836914088
:10430000A0F41F927F92A4EFB1E0BF93AF93DF932D
:10431000CF930E94CC2DCE010E942F110F900F90B1
:104320000F900F900F900F9021C18AEF91E00E94A3
:104330002F111CC181E080933003772009F4C8CE8F
:104340001FEF170D8ECE81E080933003AEE3A715EB
:1043500008F4BECE11E0170D84CE70920801672DCF
:1043600086E090E00E94E40E81E080935503B0CE99
:104370001091080181E08093550373CE82E00E9482
:10438000C30C382E292E80912D0390912E03883650
:104390009140B0F42F923F921F925F92FF92EF9262
:1043A000DF93CF930E94CC2DCE010E942F11ADB789
:1043B000BEB718960FB6F894BEBF0FBEADBFE7C02C
:1043C0002F923F92DF92CF92DF93CF930E94CC2D1A
:1043D000CE010E942F110F900F900F900F900F9011
:1043E0000F90D5C081E080933003552009F470CE42
:1043F0005A946ECE81E0809330038DEF851508F4DA
:1044000067CE539465CE50920601309202012092FD
:104410000301652D88E090E00E94E40E632D722D6B
:104420008AE090E00E94F50E82E08093550350CE22
:104430005090060182E0809355034ACE81E00E94AD
:10444000C30C880F991FFC01E156F14F259134915F
:1044500030934D0320934C03203E3E4218F4C59800
:10446000C49A02C0C59AC49880E00E94C30C382E3A
:10447000292E80912D0390912E038836914018F5B6
:104480002F923F92B9E26B9E812D112482958F70FD
:10449000962D24E6829F901911241F929F931F92BC
:1044A0008F93BF92AF92DF93CF930E94CC2DCE011A
:1044B0000E942F11ADB7BEB71A960FB6F894BEBFC3
:1044C0000FBEADBF75C02F923F929F928F92DF9328
:1044D000CF930E94CC2DCE010E942F110F900F90F0
:1044E0000F900F900F900F9063C081E08093300386
:1044F000662009F4EDCD6A94EBCD81E08093300322
:104500008DEF861508F4E4CD6394E2CDC59AC49886
:10451000609207013092040120920501662D89E026
:1045200090E00E94E40E632D722D8CE090E00E94DA
:10453000F50E93E090935503CBCDC59AC498609047
:104540000701A3E0A0935503C3CD0E94E31283307B
:1045500009F4B3CE20F4813009F4C7CEB9CD84304C
:1045600009F4B4CE863009F4BBCEB2CD0E94E3127A
:10457000833009F4DFCE20F4813009F4F9CEA8CDE0
:10458000843009F4E0CE863009F4E7CEA1CD0E9454
:10459000E312833009F426CF20F4813009F448CFA8
:1045A00097CD843009F426CF863009F42CCF90CDF6
:1045B0000E94E312833009F498CF20F4813009F48B
:1045C000BCCF86CD843009F498CF863009F49ECFD5
:1045D0007FCDDF91CF911F91FF90EF90DF90CF9033
:1045E000BF90AF909F908F907F906F905F904F9013
:1045F0003F902F9008952F923F924F925F926F922B
:104600007F928F929F92AF92BF92CF92DF92EF9262
:10461000FF920F931F93CF93DF93A0901201B0905E
:104620001301C0901001D0901101C2E0D4E00F2E10
:10463000F5E5EF2EF2E0FF2EF02D992493940F2E46
:10464000F8E44F2EF2E05F2EF02D0F2EF0E42F2E27
:10465000F2E03F2EF02D6894882482F800E612E004
:104660000F2EF7E66F2EF2E07F2EF02D80E00E94F5
:10467000C30C909349038093480382E00E94C30CCB
:104680009C0190934B0380934A03609107014091F2
:10469000480350914903649FC001659F900D112408
:1046A00060910401709105010E94552D60934603AD
:1046B000A0910601B0E00E94A72D20910201309147
:1046C000030140E050E00E947C2D20934703E091DD
:1046D0005803F0E0E331F10548F6E954FF4F0C943C
:1046E0009E2D63E97EE08FEE93E00E94B62D20912F
:1046F0001201309113013695279536952795ABE732
:10470000B4E10E94A72D969587959F938F938FEE86
:1047100093E09F938F933F922F92DF93CF930E94CA
:10472000CC2DCE010E945A1988E0809358038DB792
:104730009EB708960FB6F8949EBF0FBE8DBF96CF5A
:104740006DE87EE08FEE93E00E94B62D809111011E
:104750008F93809110018F938FEE93E09F938F93AF
:104760005F924F92DF93CF930E94CC2DCE010E9497
:104770005A1989E0809358032DB73EB7285F3F4F01
:104780000FB6F8943EBF0FBE2DBF70CF64E87EE039
:104790008FEE93E00E94B62D809145038F93809118
:1047A00044038F938FEE93E09F938F93FF92EF924A
:1047B000DF93CF930E94CC2DCE010E945A198AE03C
:1047C00080935803ADB7BEB718960FB6F894BEBF26
:1047D0000FBEADBF4BCF67E77EE08FEE93E00E9448
:1047E000B62D8FEE93E00E945A198BE08093580308
:1047F0003DCF6AE67EE08FEE93E00E94B62D809179
:1048000047031F928F938FEE93E09F938F931F9395
:104810000F93DF93CF930E94CC2DCE010E945A19A3
:104820008CE0809358038DB79EB708960FB6F89426
:104830009EBF0FBE8DBF1ACF64E67EE08FEE93E081
:104840000E94B62D9091460389E2989F812D1124F4
:1048500082958F70A4E68A9F901911241F929F93CE
:104860001F928F938FEE93E09F938F937F926F921F
:10487000DF93CF930E94CC2DCE010E945A198DE078
:10488000809358038DB79EB70A960FB6F8949EBFD3
:104890000FBE8DBFEBCE6BE57EE08FEE93E00E9406
:1048A000B62D40910B0150910C019A01ADECBCEC7E
:1048B0000E94A72D969587959695879596958795AD
:1048C0009C01220F331F880F991F880F991F880F93
:1048D000991F820F931FDA01A81BB90BCD019F937B
:1048E000AF939A01ADECBCEC0E94A72D96958795ED
:1048F00096958795969587959F938F938FEE93E0E6
:104900009F938F93A4E7B2E0BF93AF93DF93CF93CE
:104910000E94CC2DCE010E945A198EE0809358033C
:10492000ADB7BEB71A960FB6F894BEBF0FBEADBFF7
:104930009DCE61E57EE08FEE93E00E94B62D8FEE76
:1049400093E00E945A198FE0809358038FCE0E9403
:10495000E312833049F018F48130B1F087CE84300F
:1049600049F0863069F082CE82E080935A039092BB
:1049700058037CCE90925A0387E08093580376CEFA
:1049800080E18093580372CE83E080935A031092A3
:10499000590343C20E94E312833049F018F4813076
:1049A000A9F064CE843049F0863061F05FCE82E0B9
:1049B00080935A038093580359CE90925A031092D1
:1049C000580354CE81E18093580350CE83E0809306
:1049D0005A031092590321C20E94E312833049F016
:1049E00018F48130B1F042CE843051F0863069F055
:1049F0003DCE82E080935A0383E08093580336CE05
:104A000090925A039092580331CE82E180935803DA
:104A10002DCE83E080935A0310925903FEC10E9469
:104A2000E312833049F018F48130C9F01FCE84308E
:104A300049F0863069F01ACE82E080935A03809262
:104A4000580314CE90925A0382E0809358030ECEFE
:104A500080925A03109257030E947D1907CE83E07B
:104A600080935A0310925903D8C16AE67EE08FEE14
:104A700093E00E94B62D809147031F928F938FEE93
:104A800093E09F938F931F930F93DF93CF930E9495
:104A9000CC2DCE010E942F110E94E312ADB7BEB7FC
:104AA00018960FB6F894BEBF0FBEADBF833031F07D
:104AB000843059F0813009F0D9CD0DC082E0809367
:104AC0005A0385E080935803D1CD90925A0383E036
:104AD00080935803CBCD83E080935A0310925903FF
:104AE0009CC10E94E312833031F0843059F0813050
:104AF00009F0BCCD0CC082E080935A03B6E0B093BD
:104B00005803B4CD90925A0380925803AFCD83E0FE
:104B100080935A031092590380C10E94E31283309C
:104B200049F018F48130C9F0A1CD843051F08630BD
:104B300071F09CCD82E080935A0387E08093580304
:104B400095CD90925A0385E0809358038FCD809243
:104B50005A03109256030AD989CD83E080935A03F1
:104B6000109259035AC10E94E312833049F018F49D
:104B70008130C1F07BCD843049F0863069F076CD4C
:104B800082E080935A031092580370CD90925A039A
:104B900026E0209358036ACD80925A031092550361
:104BA00023DA64CD83E080935A031092590335C110
:104BB00063E97EE08FEE93E0D9D780912D03909149
:104BC0002E038836914008F5950136952795369540
:104BD0002795ABE7B4E1BBD7969587959F938F93C5
:104BE0008FEE93E09F938F933F922F92DF93CF931B
:104BF000D3D7CE010E942F11ADB7BEB718960FB60E
:104C0000F894BEBF0FBEADBF14C08FEE93E09F936C
:104C10008F93A1E8B2E0BF93AF93DF93CF93BCD75C
:104C2000CE010E942F110F900F900F900F900F90B8
:104C30000F900E94E312833049F018F4813051F153
:104C400015CD843079F08630C9F010CD90923003C4
:104C500091EDA91697E0B90608F408CDA4E6AA1AC2
:104C6000B10804CD90923003B8EAAB16B1E6BB06AA
:104C700008F0FCCC24E6A20EB11CF8CCB0921301D3
:104C8000A0921201B50180E090E00E94F50E109212
:104C90005803ECCCA0901201B0901301109258036D
:104CA000E5CC6DE87EE08FEE93E060D780912D0338
:104CB00090912E0388369140B8F4DF92CF928FEE18
:104CC00093E09F938F935F924F92DF93CF9364D73C
:104CD000CE010E942F11ADB7BEB718960FB6F8944B
:104CE000BEBF0FBEADBF14C08FEE93E09F938F93F6
:104CF000A9E8B2E0BF93AF93DF93CF934DD7CE0136
:104D00000E942F110F900F900F900F900F900F9007
:104D10000E94E312833049F018F4813049F1A6CCA7
:104D2000843071F08630C1F0A1CC9092300399ECC0
:104D3000C916D10408F49ACCA4E6CA1AD10896CCB4
:104D400090923003B0EFCB16BAE0DB0608F08ECCC1
:104D500024E6C20ED11C8ACCD0921101C09210015F
:104D6000B60182E090E00E94F50E909258037ECC4E
:104D7000C0901001D09011019092580377CC64E854
:104D80007EE08FEE93E0F2D680912D0390912E037A
:104D900088369140D8F4809145038F9380914403E5
:104DA0008F938FEE93E09F938F93FF92EF92DF9319
:104DB000CF93F2D6CE010E942F11ADB7BEB7189691
:104DC0000FB6F894BEBF0FBEADBF14C08FEE93E018
:104DD0009F938F93A7E9B2E0BF93AF93DF93CF93F5
:104DE000DBD6CE010E942F110F900F900F900F90E5
:104DF0000F900F900E94E312813059F0863009F035
:104E000035CC109245031092440382E080935803FE
:104E10002DCC82E08093580329CCDF91CF911F9154
:104E20000F91FF90EF90DF90CF90BF90AF909F9049
:104E30008F907F906F905F904F903F902F9008954C
:104E400080915903813009F448C020F0823009F480
:104E500091C00895E0911501F0E0EE0FFF1FE356B9
:104E6000F24F659174918FEF93E080D68091170196
:104E70001F928F93809118011F928F938FEF93E071
:104E80009F938F93809154031F928F9380913E0341
:104E900090E0880F991F875E9E4F9F938F9380911C
:104EA00014011F928F9382EA92E09F938F9382E086
:104EB00094E09F938F9370D682E094E00E945A19F9
:104EC00081E0809359032DB73EB7205F3F4F0FB667
:104ED000F8943EBF0FBE2DBF0895E0911501F0E09C
:104EE000EE0FFF1FE356F24F659174918FEF93E041
:104EF0003DD6809117011F928F93809118011F92C8
:104F00008F938FEF93E09F938F93809154031F9221
:104F10008F9380913E0390E0880F991F875E9E4F8C
:104F20009F938F93809114011F928F9382EA92E056
:104F30009F938F9382E094E09F938F932DD682E08E
:104F400094E00E942F110E94E31280935B032DB71F
:104F50003EB7205F3F4F0FB6F8943EBF0FBE2DBF48
:104F6000863009F051C084E080935A0382E0809338
:104F70005903089568E089EB92E00E942A17C498CB
:104F8000C79887B78F7B87BF89B78F7E89BF1092FD
:104F90006E0310926D0310926C03109268031092CE
:104FA000690310926A0310926B0381E080934201BF
:104FB00010926703109266031092640310926503C7
:104FC00010926603109267031092620310926103BD
:104FD00010925F0319BC18BC10925D03C59A109221
:104FE00021011092220110922301109224011092AB
:104FF000310110923201109233011092340110925B
:105000003D0310925803F7CA08951F920F920FB6EE
:105010000F9211240BB60F924F925F926F927F9274
:105020008F929F92AF92BF92CF92DF92EF92FF92B8
:105030002F933F934F935F936F937F938F939F93A0
:10504000AF93BF93EF93FF9380913D03882309F4BF
:10505000A1C08090310190903201A0903301B090B6
:1050600034018092350190923601A0923701B092BE
:105070003801C0903901D0903A01E0903B01F090A6
:105080003C01C0923101D0923201E0923301F092A2
:1050900034012091290130912A0140912B01509136
:1050A0002C01C701B6019ED420912101309122012B
:1050B0004091230150912401E3D22B013C016093E4
:1050C0002101709322018093230190932401A50173
:1050D0009401C701B601D3D2209125013091260158
:1050E00040912701509128017DD44B015C016093D0
:1050F0001D0170931E0180931F0190932001209148
:105100002D0130912E0140912F0150913001C701A6
:10511000B60168D49B01AC01C301B201B1D29B01BD
:10512000AC01C501B401ACD26B017C0160933D01BF
:1051300070933E0180933F019093400120E030E066
:10514000A90102D388231CF410925D0323C020E040
:1051500030E0A901C701B60141D488237CF020E0EA
:1051600030E048EC52E4C701B601EED2181634F034
:10517000C701B60155D360935D030CC020E030E059
:1051800048EC52E4C701B60129D418161CF484E691
:1051900080935D0380914101815080934101811191
:1051A00009C0C59AC49884E68093410180915D034B
:1051B00080935C039091410180915C03981302C03D
:1051C000C598C49AFF91EF91BF91AF919F918F9134
:1051D0007F916F915F914F913F912F91FF90EF9051
:1051E000DF90CF90BF90AF909F908F907F906F9007
:1051F0005F904F900F900BBE0F900FBE0F901F90BF
:1052000018951F920F920FB60F9211242F933F9370
:105210008F939F93AF93BF93F89480914201811134
:1052200039C030916E0330936F0324B520936E0321
:1052300080916C0390916D03A0E0B0E0BA2FA92F8C
:10524000982F8827831B9109A109B109820F911D0D
:10525000A11DB11D873625E09207A105B10548F0D3
:105260008093680390936903A0936A03B0936B03E0
:105270000CC086E695E0A0E0B0E0809368039093D0
:105280006903A0936A03B0936B0310926D031092AD
:105290006C0311C084B580936E0310926D0310925D
:1052A0006C03109268031092690310926A031092C3
:1052B0006B03109242017894BF91AF919F918F91AF
:1052C0003F912F910F900FBE0F901F9018951F9236
:1052D0000F920FB60F9211240BB60F922F933F939C
:1052E0004F935F936F937F938F939F93AF93BF93EE
:1052F000EF93FF9380916C0390916D038E3021E0CA
:10530000920730F4019690936D0380936C0303C071
:1053100081E080934201809160038D3221F08F5FA4
:105320008093600328C01092600380915003909195
:1053300051032091610330916203AC01485251093D
:105340002417350740F480915F038F3F79F08F5F1A
:1053500080935F030BC088968217930738F480917F
:105360005F03882319F0815080935F0380915F036E
:1053700090E099BD88BD80915E03853021F08F5FFC
:1053800080935E034BC010925E03209168033091BE
:10539000690340916A0350916B03263685E0380714
:1053A0004105510570F08091420181110AC060E011
:1053B00078E789E690E0A0D33093670320936603F3
:1053C00004C0109267031092660320916603309127
:1053D00067038091640390916503280F391F309310
:1053E000650320936403809163038F5F8C3019F011
:1053F0008093630313C010926303ABEABAEAA7D3A6
:10540000969587959695879596958795909362033F
:10541000809361031092650310926403FF91EF91F2
:10542000BF91AF919F918F917F916F915F914F91BC
:105430003F912F910F900BBE0F900FBE0F901F90BA
:105440001895E4E7F0E0808180FDFDCF8091430175
:105450000895CF93DF93EC01E4E7F0E0808180FDD5
:10546000FDCF60937203888180937303888180FDF0
:1054700015C0623098F0FE0131966250262F30E060
:105480002E5F3F4F2C0F3D1FDF01AC1BBD0B9191D9
:10549000AD58BC4F9C93E217F307B1F788EF8093A8
:1054A000430185EA80937400DF91CF910895E4E78A
:1054B000F0E0208120FDFDCF209143012F3FA9F492
:1054C000662399F0AC016150262F30E02F5F3F4FEB
:1054D000280F391FFC01DF01A41BB50BAD58BC4FD1
:1054E0008C918193E217F307B1F7809143010895FE
:1054F0001F920F920FB60F9211240BB60F922F939B
:105500003F938F939F93AF93BF93EF93FF9320911C
:105510007100287F822F90E0FC013897E135F1057A
:1055200008F055C0E653FF4F09C310927003E09195
:10553000700380917203E81778F4F0E0ED58FC4FA7
:1055400080818093730085E880937400809170035C
:105550008F5F8093700340C08FEF8093430184E995
:105560008093740086E08093710336C0809170034D
:10557000E82FF0E090917300ED58FC4F90838F5F1F
:1055800080937003809172032091700330E090E06B
:1055900001972817390724F485EC809374001CC008
:1055A00085E88093740018C0E0917003F0E080916A
:1055B0007300ED58FC4F80838FEF8093430184E9A3
:1055C0008093740009C085EA8093740005C020931D
:1055D000430184E080937400FF91EF91BF91AF91FC
:1055E0009F918F913F912F910F900BBE0F900FBE07
:1055F0000F901F9018951F920F920FB60F921124C3
:105600000BB60F922F933F934F935F936F937F93BC
:105610008F939F93AF93BF93EF93FF938CB180933E
:1056200012048F37C9F4F8948EEB92E00E942F1188
:1056300068E08CEC92E00E942A17C498C79887B75C
:105640008F7B87BF19BC18BCC59AE0E0FCEFF093D4
:105650001404E09313040995FF91EF91BF91AF916A
:105660009F918F917F916F915F914F913F912F917A
:105670000F900BBE0F900FBE0F901F9018955058B3
:10568000BB27AA270ED070C161D130F066D120F0BF
:1056900031F49F3F11F41EF456C10EF4E095E7FB80
:1056A0004CC1E92F72D180F3BA17620773078407E0
:1056B000950718F071F49EF58AC10EF4E0950B2E53
:1056C000BA2FA02D0B01B90190010C01CA01A00154
:1056D0001124FF27591B99F0593F50F4503E68F1AF
:1056E0001A16F040A22F232F342F4427585FF3CFF0
:1056F000469537952795A795F0405395C9F77EF4C1
:105700001F16BA0B620B730B840BBAF09150A1F009
:10571000FF0FBB1F661F771F881FC2F70EC0BA0F8F
:10572000621F731F841F48F4879577956795B79517
:10573000F7959E3F08F0B3CF9395880F08F099270F
:10574000EE0F979587950895D4D008F481E00895D9
:105750000CD00AC102D140F0F9D030F021F45F3F03
:1057600019F0EBC0511134C1EEC00FD198F3992359
:10577000C9F35523B1F3951B550BBB27AA27621715
:105780007307840738F09F5F5F4F220F331F441F5A
:10579000AA1FA9F333D00E2E3AF0E0E830D0915092
:1057A0005040E695001CCAF729D0FE2F27D0660F7F
:1057B000771F881FBB1F261737074807AB07B0E8BE
:1057C00009F0BB0B802DBF01FF2793585F4F2AF0D4
:1057D0009E3F510568F0B1C0FBC05F3FECF3983EBF
:1057E000DCF3869577956795B795F7959F5FC9F731
:1057F000880F911D9695879597F90895E1E0660FBA
:10580000771F881FBB1F621773078407BA0720F032
:10581000621B730B840BBA0BEE1F88F7E09508959B
:10582000BCD088F09F5790F0B92F9927B751A0F0BE
:10583000D1F0660F771F881F991F1AF0BA95C9F724
:1058400012C0B13081F0C3D0B1E00895C0C0672F5D
:10585000782F8827B85F39F0B93FCCF386957795D4
:105860006795B395D9F73EF49095809570956195BD
:105870007F4F8F4F9F4F0895E89409C097FB3EF4E8
:1058800090958095709561957F4F8F4F9F4F99238D
:10589000A9F0F92F96E9BB279395F695879577950B
:1058A0006795B795F111F8CFFAF4BB0F11F460FFCB
:1058B0001BC06F5F7F4F8F4F9F4F16C0882311F023
:1058C00096E911C0772321F09EE8872F762F05C037
:1058D000662371F096E8862F70E060E02AF09A95D2
:1058E000660F771F881FDAF7880F9695879597F9C7
:1058F0000895990F0008550FAA0BE0E8FEEF161661
:105900001706E807F907C0F012161306E407F507B3
:1059100098F0621B730B840B950B39F40A2661F027
:10592000232B242B252B21F408950A2609F4A140CA
:10593000A6958FEF811D811D089597F99F6780E8D7
:1059400070E060E008959FEF80EC089500240A94D1
:105950001616170618060906089500240A9412164A
:105960001306140605060895092E0394000C11F47D
:10597000882352F0BB0F40F4BF2B11F460FF04C02A
:105980006F5F7F4F8F4F9F4F089557FD9058440F83
:10599000551F59F05F3F71F04795880F97FB991F8E
:1059A00061F09F3F79F0879508951216130614064B
:1059B000551FF2CF4695F1DF08C0161617061806D8
:1059C000991FF1CF86957105610508940895E894B3
:1059D000BB2766277727CB0197F908958ADF08F45C
:1059E0008FEF08950BD0C0CFB1DF28F0B6DF18F0ED
:1059F000952309F0A2CFA7CF1124EACFC6DFA0F3E9
:105A0000959FD1F3950F50E0551F629FF001729F53
:105A1000BB27F00DB11D639FAA27F00DB11DAA1F72
:105A2000649F6627B00DA11D661F829F2227B00DBF
:105A3000A11D621F739FB00DA11D621F839FA00D4A
:105A4000611D221F749F3327A00D611D231F849F9A
:105A5000600D211D822F762F6A2F11249F575040F1
:105A60008AF0E1F088234AF0EE0FFF1FBB1F661F8C
:105A7000771F881F91505040A9F79E3F510570F045
:105A80005CCFA6CF5F3FECF3983EDCF3869577952D
:105A90006795B795F795E7959F5FC1F7FE2B880F40
:105AA000911D9695879597F90895AA1BBB1B51E107
:105AB00007C0AA1FBB1FA617B70710F0A61BB70B7E
:105AC000881F991F5A95A9F780959095BC01CD0123
:105AD000089597FB072E16F4009406D077FD08D0A2
